:020000040800F2
:1000000000000820E916000871150008771500089F
:100010007D15000883150008891500080000000000
:100020000000000000000000000000008F15000824
:100030009D15000800000000AB150008B915000868
:100040003917000839170008391700083917000850
:100050003917000839170008391700083917000840
:100060003917000839170008391700083917000830
:100070003917000839170008391700083917000820
:100080003917000839170008C51500083917000886
:100090003917000839170008391700083917000800
:1000A00039170008391700083917000839170008F0
:1000B00039170008E1150008F51500083917000880
:1000C00039170008391700083917000839170008D0
:1000D0003917000839170008091600081D1600080E
:1000E00039170008391700083917000839170008B0
:1000F00039170008391700083917000839170008A0
:10010000391700083917000839170008391700088F
:10011000391700083917000839170008391700087F
:100120003116000839170008391700083917000878
:100130004516000839170008391700083917000854
:10014000391700083917000839170008391700084F
:10015000391700083917000839170008391700083F
:10016000391700083917000839170008391700082F
:100170003917000839170008391700080000000077
:10018000391700083917000839170008391700080F
:1001900039170008391700083917000839170008FF
:1001A00039170008391700083917000839170008EF
:1001B00039170008391700083917000839170008DF
:1001C0003917000839170008000000003917000827
:1001D00039170008391700083917000839170008BF
:1001E00039170008391700083917000839170008AF
:0801F000391700083917000857
:1002000010B5054C237833B9044B13B10448AFF350
:1002100000800123237010BD70000020000000004A
:100220005870000808B5034B1BB103490348AFF3EE
:10023000008008BD00000000740000205870000815
:1002400001F0FF01102A2BDB10F0070F08D010F887
:10025000013B013A8B422DD010F0070F42B3F6D18B
:10026000F0B441EA012141EA014122F007047FF0A4
:1002700000070023F0E80256083C85EA010586EAFB
:10028000010685FA47F5A3FA87F586FA47F6A5FA37
:1002900087F68EB9EED1F0BC01F0FF0102F0070243
:1002A00032B110F8013B013A83EA010313B1F8D1EE
:1002B0000020704701387047002D06BF35460338CF
:1002C000073815F0010F07D1013015F4807F02BF08
:1002D000013015F4C03F0130F0BC0138704700BF59
:1002E00053B94AB9002908BF00281CBF4FF0FF319D
:1002F0004FF0FF3000F074B9ADF1080C6DE904CE99
:1003000000F006F8DDF804E0DDE9022304B07047F0
:100310002DE9F047089D04468E46002B4DD18A42B8
:10032000944669D9B2FA82F252B101FA02F3C2F1EB
:10033000200120FA01F10CFA02FC41EA030E94407C
:100340004FEA1C48210CBEFBF8F61FFA8CF708FB9D
:1003500016E341EA034306FB07F199420AD91CEB75
:10036000030306F1FF3080F01F81994240F21C81A7
:10037000023E63445B1AA4B2B3FBF8F008FB1033EF
:1003800044EA034400FB07F7A7420AD91CEB040424
:1003900000F1FF3380F00A81A74240F207816444F4
:1003A000023840EA0640E41B00261DB1D440002379
:1003B000C5E900433146BDE8F0878B4209D9002DDD
:1003C00000F0EF800026C5E9000130463146BDE867
:1003D000F087B3FA83F6002E4AD18B4202D38242D1
:1003E00000F2F980841A61EB030301209E46002D80
:1003F000E0D0C5E9004EDDE702B9FFDEB2FA82F2D5
:10040000002A40F09280A1EB0C014FEA1C471FFA32
:100410008CFE0126200CB1FBF7F307FB131140EA19
:1004200001410EFB03F0884208D91CEB010103F1E6
:10043000FF3802D2884200F2CB804346091AA4B2A8
:10044000B1FBF7F007FB101144EA01440EFB00FE7C
:10045000A64508D91CEB040400F1FF3102D2A645E1
:1004600000F2BB800846A4EB0E0440EA03409CE780
:10047000C6F12007B34022FA07FC4CEA030C20FA2D
:1004800007F401FA06F31C43F9404FEA1C4900FA4D
:1004900006F3B1FBF9F8200C1FFA8CFE09FB1811CA
:1004A00040EA014108FB0EF0884202FA06F20BD93D
:1004B0001CEB010108F1FF3A80F08880884240F28D
:1004C0008580A8F102086144091AA4B2B1FBF9F0D1
:1004D00009FB101144EA014100FB0EFE8E4508D9CC
:1004E0001CEB010100F1FF346CD28E456AD9023851
:1004F000614440EA0840A0FB0294A1EB0E01A14236
:10050000C846A64656D353D05DB1B3EB080261EBA3
:100510000E0101FA07F722FA06F3F1401F43C5E97D
:10052000007100263146BDE8F087C2F12003D840B3
:100530000CFA02FC21FA03F3914001434FEA1C47F5
:100540001FFA8CFEB3FBF7F007FB10360B0C43EAE7
:10055000064300FB0EF69E4204FA02F408D91CEB97
:10056000030300F1FF382FD29E422DD90238634495
:100570009B1B89B2B3FBF7F607FB163341EA034135
:1005800006FB0EF38B4208D91CEB010106F1FF3884
:1005900016D28B4214D9023E6144C91A46EA00467B
:1005A00038E72E46284605E70646E3E61846F8E60D
:1005B0004B45A9D2B9EB020864EB0C0E0138A3E756
:1005C0004646EAE7204694E74046D1E7D0467BE737
:1005D000023B614432E7304609E76444023842E7AF
:1005E000704700BFB0B588B000AF01F0A6F800F0CA
:1005F000BFF800F093FB00F03BFB00F00FFA00F0B7
:1006000067FA00F0B5FA00F003FB00F061FB00F0C0
:1006100021F900F091F9464B3C1D1D460FCD0FC44A
:1006200095E8070084E80700424803F0FFFE4248CF
:1006300003F0FCFE3C21414804F016F80122404939
:10064000404804F079FD404B00221A703F4B0022D5
:100650001A703F4B00221A70C82001F0CBF801211C
:100660003C4802F014FD03223B493C4801F03AFAB1
:100670003B4B032219463B4801F034FA3A4B1B78B6
:100680000A3B1E2B52D801A252F823F0090700089A
:100690002D0700082D0700082D0700082D0700086A
:1006A0002D0700082D0700082D0700082D0700085A
:1006B0002D0700082D0700082D0700082D0700084A
:1006C0002D0700082D0700082D0700082D0700083A
:1006D0002D0700082D0700082D0700082D0700082A
:1006E0002D0700082D0700082D0700082D0700081A
:1006F0002D0700082D0700082D0700082D0700080A
:100700002D0700082D070008184B1B78DBB2012BC2
:1007100004D100BF00BF00BF00BF03E000BF00BFA7
:1007200000BF00BF104B00221A7000E000BF93E72B
:10073000707000082802002074020020DC010020F4
:1007400064050020C0020020710500207205002011
:100750007305002000040240580500208C00002092
:100760005E050020D40000206605002070050020F2
:1007700080B594B000AF07F11C0334220021184665
:1007800005F0F4FF07F1080300221A605A609A602E
:10079000DA601A6102F096FC2C4B1B6C2B4A43F07A
:1007A00080531364294B1B6C03F080537B607B6880
:1007B000274B1B6823F44043254A43F480431360CE
:1007C000234B1B6803F440433B603B680123FB6100
:1007D0004FF4A0233B6202237B634FF48003BB638F
:1007E0000423FB6360233B6402237B640423BB6418
:1007F0000223FB6407F11C03184602F0C3FC034606
:10080000002B01D000F053FC02F06CFC0346002BDF
:1008100001D000F04CFC0F23BB600223FB600023DF
:100820003B614FF480537B610023BB6107F10803F8
:100830000321184602F054FF0346002B01D000F0BC
:1008400036FC00BF5037BD4680BD00BF00380240B7
:100850000070004080B584B000AF3B4600221A60B3
:100860005A609A60DA60314B314A1A602F4B4FF46C
:1008700080325A602D4B00229A602C4B01221A6163
:100880002A4B00229A61294B012283F82020274B12
:1008900003225A62254B0022DA62244B254A9A62CF
:1008A000224B0022DA60214B0322DA611F4B012226
:1008B00083F830201D4B00225A611C4800F0BEFF17
:1008C0000346002B01D000F0F2FB03233B60012321
:1008D0007B600023BB603B461946144801F01AFABE
:1008E0000346002B01D000F0E2FB0A233B60022309
:1008F0007B603B4619460D4801F00CFA0346002B7D
:1009000001D000F0D4FB0D233B6003237B603B460A
:100910001946064801F0FEF90346002B01D000F00D
:10092000C6FB00BF1037BD4680BD00BF8C00002055
:10093000002001400100000F80B584B000AF3B46AD
:1009400000221A605A609A60DA60314B314A1A60AC
:100950002F4B4FF480325A602D4B00229A602C4B63
:1009600001221A612A4B00229A61294B012283F845
:100970002020274B03225A62254B0022DA62244BA7
:10098000254A9A62224B0022DA60214B0322DA6167
:100990001F4B012283F830201D4B00225A611C4856
:1009A00000F04CFF0346002B01D000F080FB062333
:1009B0003B6001237B600023BB603B461946144823
:1009C00001F0A8F90346002B01D000F070FB0523CD
:1009D0003B6002237B603B4619460D4801F09AF9C3
:1009E0000346002B01D000F062FB07233B6003238A
:1009F0007B603B461946064801F08CF90346002B04
:100A000001D000F054FB00BF1037BD4680BD00BFD1
:100A1000D4000020002201400100000F80B58CB0FE
:100A200000AF07F10C0324220021184605F09EFEBA
:100A30003B4600221A605A609A60234B234A1A6090
:100A4000214B03225A60204B00229A601E4B43F236
:100A5000D402DA601C4B00221A611B4B00225A613F
:100A6000194B00229A610323FB6000233B610123A1
:100A70007B610023BB610023FB6100233B620123F8
:100A80007B620023BB620023FB6207F10C03194663
:100A90000D4803F043FD0346002B01D000F007FB97
:100AA00000233B6000237B600023BB603B4619466C
:100AB000054804F0D9F90346002B01D000F0F7FAFD
:100AC00000BF3037BD4680BDDC0100200000014082
:100AD00080B588B000AF07F1100300221A605A6099
:100AE0009A60DA603B1D00221A605A609A601E4BC1
:100AF0001E4A1A601C4B42F27F525A601A4B002267
:100B00009A60194B4FF4FA72DA60174B00221A619F
:100B1000154B00229A61144803F030FC0346002B69
:100B200001D000F0C4FA4FF480533B6107F1100389
:100B300019460D4803F046FF0346002B01D000F094
:100B4000B6FA00237B600023FB603B1D1946064874
:100B500004F08AF90346002B01D000F0A8FA00BF88
:100B60002037BD4680BD00BF2802002000040040A1
:100B700080B588B000AF07F1100300221A605A60F8
:100B80009A60DA603B1D00221A605A609A601E4B20
:100B90001E4A1A601C4B40F2BF325A601A4B0022A8
:100BA0009A60194B4FF47A72DA60174B00221A617F
:100BB000154B00229A61144803F0E0FB0346002B1A
:100BC00001D000F074FA4FF480533B6107F1100339
:100BD00019460D4803F0F6FE0346002B01D000F045
:100BE00066FA00237B600023FB603B1D1946064824
:100BF00004F03AF90346002B01D000F058FA00BF88
:100C00002037BD4680BD00BF7402002000080040B0
:100C100080B500AF144B154A1A60134B4FF496423F
:100C20005A60114B00229A600F4B0022DA600E4B83
:100C300000221A610C4B0C225A610B4B00229A6164
:100C4000094B0022DA61084B00221A62064B00228F
:100C50005A62054804F0B4F90346002B01D000F0B5
:100C600026FA00BF80BD00BFC00200200044004043
:100C700080B500AF144B154A1A60134B4FF4613224
:100C80005A60114B00229A600F4B0022DA600E4B23
:100C900000221A610C4B0C225A610B4B00229A6104
:100CA000094B0022DA61084B00221A62064B00222F
:100CB0005A62054804F084F90346002B01D000F085
:100CC000F6F900BF80BD00BF44030020004800408B
:100CD00080B582B000AF104B1B6B0F4A43F480030A
:100CE00013630D4B1B6B03F480037B607B68002256
:100CF0000021382001F0C5FB382001F0DEFB002286
:100D000000213C2001F0BDFB3C2001F0D6FB00BFE0
:100D10000837BD4680BD00BF0038024080B58CB0AA
:100D200000AF07F11C0300221A605A609A60DA6073
:100D30001A613D4B1B6B3C4A43F0040313633A4B6F
:100D40001B6B03F00403BB61BB69374B1B6B364A5B
:100D500043F020031363344B1B6B03F020037B61D0
:100D60007B69314B1B6B304A43F0800313632E4B7E
:100D70001B6B03F080033B613B692B4B1B6B2A4AC7
:100D800043F001031363284B1B6B03F00103FB606B
:100D9000FB68254B1B6B244A43F002031363224B71
:100DA0001B6B03F00203BB60BB681F4B1B6B1E4A2F
:100DB00043F0100313631C4B1B6B03F010037B60A9
:100DC0007B68194B1B6B184A43F008031363164BDF
:100DD0001B6B03F008033B603B68002244F2810177
:100DE000124802F03BF94FF40053FB614FF48813B3
:100DF0003B6200237B6207F11C0319460C4801F09B
:100E000081FF44F28103FB6101233B6200237B628B
:100E10000023BB6207F11C031946044801F072FF6E
:100E200000BF3037BD4680BD00380240000402409C
:100E30000008024080B58CB000AF78607B681B680A
:100E4000194A934203D100BF00BF00BF00BF7B68B7
:100E50001B68164A934222D1154B5A6A154B1B68E0
:100E600092B21A80134B1B681B889BB21A46114B17
:100E70001B6807F10800104905F080FC03469AB290
:100E80000E4B1A800B4B1B6802330A4A1360094B46
:100E90001B680B4A934202D1064B0A4A1A6000BFF4
:100EA0003037BD4680BD00BF000400400008004050
:100EB000000001406C0500208C70000874050020C3
:100EC000580500200805002080B582B000AF78608A
:100ED0007B681B681F4A934237D11F4B1B78242B1A
:100EE00019D11E4B1B78DBB2002B0CBF0123002352
:100EF000DBB21A46194B1A70194B00221A70174BA5
:100F00001B78DBB2012B03D1164B174A1A6002E0A3
:100F1000144B164A1A60134B1B685A1C11490A607D
:100F20000D4A12781A700E4B1B780133DAB20C4B53
:100F30001A70094B1B780A2B02D10D4B0A221A702A
:100F4000012205490B4804F0F7F800BF0837BD46F9
:100F500080BD00BF004400406405002070050020F3
:100F60006705002068050020C803002068040020F1
:100F700066050020C0020020B0B59AB004AF7860CA
:100F80007B681B68354A93421ED1354B1B881A4635
:100F9000334B1B8803FB02F2314B5B881946304B05
:100FA0005B8801FB03F31A442D4B9B8819462C4B9D
:100FB0009B8801FB03F31344FB60FB68184600F0B9
:100FC00057F80346BB8244E07B681B68254A93427E
:100FD0003FD1234BDB881A46214BDB8803FB02F20F
:100FE0001F4B1B8919461E4B1B8901FB03F31A4437
:100FF0001B4B5B8919461A4B5B8901FB03F31344B6
:101000003B613B69184600F033F80346FB82144B02
:101010001B881C46124B5B881D46114B9B88BA8A65
:10102000F98A07F118000291019200932B4622469B
:101030000D4905F0A3FB0346DBB287F8573097F85C
:101040005730DBB29AB207F118031946074804F08B
:1010500005F800BF5837BD46B0BD00BF00200140B5
:101060005805002000220140987000084403002029
:1010700080B485B000AF78607B68FB600023BB6004
:1010800009E0FB68BB607A68FB68B2FBF3F2FB68BF
:1010900013445B08FB60BA68FB689A42F1D1FB68B5
:1010A0009BB218461437BD465DF8047B704780B488
:1010B00000AF72B600BFFEE780B483B000AF0F4B45
:1010C0001B6C0E4A43F0805313640C4B1B6C03F0F3
:1010D00080537B607B68094B5B6C084A43F4804318
:1010E0005364064B5B6C03F480433B603B6800BF7A
:1010F0000C37BD465DF8047B704700BF00380240E6
:1011000080B58CB000AF786007F11C0300221A6034
:101110005A609A60DA601A617B681B686E4A934273
:1011200074D16E4B5B6C6D4A43F4807353646B4BAC
:101130005B6C03F48073BB61BB69684B1B6B674AD4
:1011400043F004031363654B1B6B03F004037B61E3
:101150007B69624B1B6B614A43F0010313635F4B76
:101160001B6B03F001033B613B690923FB61032314
:101170003B6200237B6207F11C031946584801F0CB
:10118000C1FD0823FB6103233B6200237B6207F15F
:101190001C031946534801F0B5FD534B534A1A60DE
:1011A000514B00225A60504B00229A604E4B002255
:1011B000DA604D4B4FF480621A614B4B4FF4006282
:1011C0005A61494B4FF400529A61474B4FF4807279
:1011D000DA61454B00221A62434B00225A624248B0
:1011E00001F086F90346002B01D0FFF760FF7B6812
:1011F0003D4A9A633C4A7B68936300220021122097
:1012000001F03FF9122001F058F961E07B681B689A
:10121000374A93425CD1314B5B6C304A43F4806374
:1012200053642E4B5B6C03F48063FB60FB682B4BB9
:101230001B6B2A4A43F020031363284B1B6B03F0FC
:101240002003BB60BB684FF46073FB6103233B6208
:1012500000237B6207F11C031946264801F052FD6A
:10126000254B264A1A60244B4FF080625A60224B6D
:1012700000229A60204B0022DA601F4B4FF48062FC
:101280001A611D4B4FF400625A611B4B4FF4005220
:101290009A61194B0022DA61174B00221A62164B31
:1012A00000225A62144801F023F90346002B01D0B2
:1012B000FFF7FDFE7B68104A9A630F4A7B689363D1
:1012C00000220021122001F0DCF8122001F0F5F8D4
:1012D00000BF3037BD4680BD0020014000380240CD
:1012E00000080240000002401C010020706402401F
:1012F00000220140001402407C01002010640240E2
:1013000080B58AB000AF786007F1140300221A603C
:101310005A609A60DA601A617B681B68174A9342C8
:1013200028D1174B5B6C164A43F001035364144BEE
:101330005B6C03F001033B613B69114B1B6B104A73
:1013400043F0100313630E4B1B6B03F01003FB60A1
:10135000FB684FF420637B610223BB610023FB61C8
:1013600000233B6201237B6207F114031946054801
:1013700001F0C8FC00BF2837BD4680BD0000014019
:10138000003802400010024080B584B000AF7860A1
:101390007B681B681A4A934214D11A4B1B6C194A7A
:1013A00043F002031364174B1B6C03F00203FB6052
:1013B000FB68002200211D2001F063F81D2001F0D0
:1013C0007CF818E07B681B680F4A934213D10D4BE1
:1013D0001B6C0C4A43F0040313640A4B1B6C03F0B0
:1013E0000403BB60BB68002200211E2001F049F805
:1013F0001E2001F062F800BF1037BD4680BD00BF5F
:1014000000040040003802400008004080B5B0B041
:1014100000AF786007F1AC0300221A605A609A604E
:10142000DA601A6107F11C0390220021184605F0CA
:101430009DF97B681B684A4A934243D18023FB6134
:1014400000237B6607F11C03184602F06FFB03467E
:10145000002B01D0FFF72BFE424B1B6C414A43F49B
:10146000003313643F4B1B6C03F40033BB61BB6957
:101470003C4B1B6B3B4A43F008031363394B1B6B1C
:1014800003F008037B617B696023C7F8AC3002235B
:10149000C7F8B0300023C7F8B4300323C7F8B8301A
:1014A0000723C7F8BC3007F1AC0319462E4801F0FA
:1014B00029FC00220021262000F0E3FF262000F076
:1014C000FCFF49E07B681B68284A934244D14FF4F3
:1014D0008073FB610023BB6607F11C03184602F012
:1014E00025FB0346002B01D0FFF7E1FD1D4B1B6CD4
:1014F0001C4A43F4802313641A4B1B6C03F48023AF
:101500003B613B69174B1B6B164A43F0080313639F
:10151000144B1B6B03F00803FB60FB684FF4407334
:10152000C7F8AC300223C7F8B0300023C7F8B43096
:101530000323C7F8B8300723C7F8BC3007F1AC0362
:101540001946094801F0DEFB00220021272000F0A7
:1015500098FF272000F0B1FF00BFC037BD4680BD17
:101560000044004000380240000C024000480040A7
:1015700080B400AFFEE780B400AFFEE780B400AFF8
:10158000FEE780B400AFFEE780B400AFFEE780B4B2
:1015900000AF00BFBD465DF8047B704780B400AF6C
:1015A00000BFBD465DF8047B704780B400AF00BF4C
:1015B000BD465DF8047B704780B500AF00F0FAF8D7
:1015C00000BF80BD80B500AF034800F07BF9034841
:1015D00000F078F900BF80BD8C000020D40000200E
:1015E00080B500AF024803F0CDF800BF80BD00BF5A
:1015F0002802002080B500AF024803F0C3F800BF06
:1016000080BD00BF7402002080B500AF024803F027
:10161000E1FD00BF80BD00BFC002002080B500AF6B
:10162000024803F0D7FD00BF80BD00BF4403002087
:1016300080B500AF024801F0FBF800BF80BD00BFDD
:101640007C01002080B500AF024801F0F1F800BF36
:1016500080BD00BF1C01002080B586B000AF78605F
:10166000144A154BD31A7B617B693B61134B1B6892
:10167000002B02D1114B124A1A60104B1A687B687A
:1016800013443A699A4207D205F046F803460C2201
:101690001A604FF0FF3309E0084B1B68FB60074BF3
:1016A0001A687B681344054A1360FB6818461837AC
:1016B000BD4680BD00000820000400007805002021
:1016C0009005002080B400AF064BD3F88830054A5F
:1016D00043F47003C2F8883000BFBD465DF8047B58
:1016E000704700BF00ED00E0DFF834D00D480E4930
:1016F0000E4A002302E0D458C4500433C4188C426C
:10170000F9D30B4A0B4C002301E013600432A242D0
:10171000FBD3FFF7D7FF05F005F8FEF763FF70472F
:101720000000082000000020700000202471000844
:101730007000002090050020FEE780B500AF032078
:1017400000F094FE002000F005F8FFF7B5FC002340
:10175000184680BD80B582B000AF7860124B1A6821
:10176000124B1B7819464FF47A73B3FBF1F3B2FBBB
:10177000F3F3184600F0AFFE0346002B01D001231F
:101780000EE07B680F2B0AD8002279684FF0FF30FB
:1017900000F077FE064A7B681360002300E0012317
:1017A00018460837BD4680BD000000200800002014
:1017B0000400002080B400AF064B1B781A46064B8D
:1017C0001B681344044A136000BFBD465DF8047BE8
:1017D000704700BF080000207C05002080B400AFE7
:1017E000034B1B681846BD465DF8047B704700BF7D
:1017F0007C05002080B584B000AF7860FFF7EEFF75
:10180000B8607B68FB60FB68B3F1FF3F05D00A4B13
:101810001B781A46FB681344FB6000BFFFF7DEFF2E
:101820000246BB68D31AFA689A42F7D800BF00BFD5
:101830001037BD4680BD00BF0800002080B584B0D1
:1018400000AF78600023FB737B68002B01D101237C
:1018500031E07B681B6C002B09D17868FFF750FCE6
:101860007B6800225A647B68002283F83C207B68F6
:101870001B6C03F01003002B16D17B681A6C104B05
:10188000134043F002027B681A64786800F098FB0A
:101890007B6800225A647B681B6C23F0030343F0CF
:1018A00001027B681A6401E00123FB737B6800225C
:1018B00083F83C20FB7B18461037BD4680BD00BF37
:1018C000FDEEFFFF80B586B000AF786000237B613E
:1018D00000233B617B681B681B68FB607B681B689F
:1018E0005B68BB60FB6803F002037B61BB6803F0CD
:1018F00020033B617B69002B49D03B69002B46D01C
:101900007B681B6C03F01003002B05D17B681B6CFC
:1019100043F400727B681A647B681B689B6803F061
:101920004053002B2BD17B689B69002B27D17B6810
:101930001B68DB6A03F47003002B06D07B681B680E
:101940009B6803F48063002B19D17B681B685A687D
:101950007B681B6822F020025A607B681B6C23F4B2
:1019600080727B681A647B681B6C03F48053002BC5
:1019700005D17B681B6C43F001027B681A647868B0
:10198000FFF7FAFA7B681B686FF012021A60FB68B7
:1019900003F004037B61BB6803F080033B617B6958
:1019A000002B57D03B69002B54D07B681B6C03F095
:1019B0001003002B05D17B681B6C43F400527B683D
:1019C0001A647B681B689B6803F44013002B39D1B1
:1019D0007B681B689B6B03F44013002B06D07B686D
:1019E0001B689B6803F48063002B2BD17B681B680A
:1019F0005B6803F48063002B24D17B681B689B68C1
:101A000003F04053002B1DD17B689B69002B19D13B
:101A10007B681B685A687B681B6822F080025A60EA
:101A20007B681B6C23F480527B681A647B681B6C98
:101A300003F48073002B05D17B681B6C43F001021B
:101A40007B681A64786800F037FC7B681B686FF06D
:101A50000C021A60FB6803F001037B61BB6803F0B2
:101A600040033B617B69002B17D03B69002B14D0EE
:101A70007B681B681B6803F00103012B0DD17B6899
:101A80001B6C43F480327B681A64786800F02EF98E
:101A90007B681B686FF001021A60FB6803F020038B
:101AA0007B61BB6803F080633B617B69002B15D0D1
:101AB0003B69002B12D07B685B6C43F002027B68B1
:101AC0005A647B681B686FF020021A60786800F027
:101AD00017F97B681B686FF020021A6000BF183787
:101AE000BD4680BD80B586B000AFF860B9607A6051
:101AF00000237B61FB6893F83C30012B01D102236A
:101B0000D4E0FB68012283F83C20FB681B689B68DB
:101B100003F00103012B18D0FB681B689A68FB686F
:101B20001B6842F001029A60624B1B68624AA2FB8A
:101B300003239A0C13465B0013447B6102E07B692C
:101B4000013B7B617B69002BF9D1FB681B689B68BB
:101B500003F00103012B40F09C80FB681A6C574B8B
:101B6000134043F48072FB681A64FB681B685B686F
:101B700003F48063002B07D0FB681B6C23F44053F5
:101B800043F48052FB681A64FB681B6C03F48053B7
:101B9000B3F5805F06D1FB685B6C23F00602FB683F
:101BA0005A6402E0FB6800225A64FB68002283F852
:101BB0003C20FB689B6B424ADA63FB689B6B414AA3
:101BC0001A64FB689B6B404ADA64FB681B686FF021
:101BD00022021A60FB681B685A68FB681B6842F0A7
:101BE00080625A60FB681B689A68FB681B6842F455
:101BF00080729A60FB68986BFB681B684C331946CF
:101C0000BA687B6800F022FD304B5B6803F01F036D
:101C1000002B0FD1FB681B689B6803F04053002B1F
:101C200043D1FB681B689A68FB681B6842F08042DE
:101C30009A603AE0FB681B68254A93420ED1FB6824
:101C40001B689B6803F04053002B07D1FB681B689F
:101C50009A68FB681B6842F080429A601B4B5B6885
:101C600003F01003002B20D1FB681B68194A934234
:101C70001BD1FB681B689B6803F04053002B14D1F9
:101C8000FB681B689A68FB681B6842F080429A6098
:101C90000BE0FB681B6C43F01002FB681A64FB68E6
:101CA0005B6C43F00102FB685A6400231846183746
:101CB000BD4680BD0000002083DE1B43FEF8FFFF11
:101CC000B52100086F2200088B2200080023014084
:101CD000002001400022014080B483B000AF786052
:101CE00000BF0C37BD465DF8047B704780B483B0FD
:101CF00000AF786000BF0C37BD465DF8047B7047CD
:101D000080B483B000AF786000BF0C37BD465DF88B
:101D1000047B704780B485B000AF786039600023E1
:101D2000FB607B6893F83C30012B01D1022336E144
:101D30007B68012283F83C203B681B68092B3AD959
:101D40003B681B68B3F1004F35D07B681B68D968CE
:101D50003B681B689BB21A4613465B0013441E3B4C
:101D6000072202FA03F3DA437B681B680A40DA6051
:101D70003B681B688D4A93420AD17B681B68D9680F
:101D80003B689B681A067B681B680A43DA6035E08B
:101D90007B681B68D9683B689A683B681B689BB284
:101DA000184603465B0003441E3B9A407B681B6851
:101DB0000A43DA6022E07B681B6819693B681B688C
:101DC0009BB21A4613465B001344072202FA03F340
:101DD000DA437B681B680A401A617B681B681969D3
:101DE0003B689A683B681B689BB2184603465B00D9
:101DF00003449A407B681B680A431A613B685B682E
:101E0000062B24D87B681B68596B3B685A681346BD
:101E10009B001344053B1F2202FA03F3DA437B685D
:101E20001B680A405A637B681B68596B3B681B68D8
:101E30009BB218463B685A6813469B001344053B07
:101E400000FA03F27B681B680A435A634CE03B6864
:101E50005B680C2B24D87B681B68196B3B685A683D
:101E600013469B001344233B1F2202FA03F3DA4379
:101E70007B681B680A401A637B681B68196B3B68A8
:101E80001B689BB218463B685A6813469B00134474
:101E9000233B00FA03F27B681B680A431A6323E0C2
:101EA0007B681B68D96A3B685A6813469B001344D9
:101EB000413B1F2202FA03F3DA437B681B680A40A6
:101EC000DA627B681B68D96A3B681B689BB218465C
:101ED0003B685A6813469B001344413B00FA03F2E7
:101EE0007B681B680A43DA627B681B68304A93424E
:101EF0000AD13B681B68B3F1004F05D12D4B5B68DD
:101F00002C4A23F4400353607B681B68284A9342A1
:101F10000FD13B681B68122B0BD1264B5B68254AFF
:101F200023F400035360234B5B68224A43F480038D
:101F300053607B681B681E4A93422BD13B681B6829
:101F40001A4A934203D03B681B68112B22D1194BCC
:101F50005B68184A23F480035360164B5B68154A8C
:101F600043F4000353603B681B68104A934211D14D
:101F7000114B1B68114AA2FB03239A0C13469B00CA
:101F800013445B00FB6002E0FB68013BFB60FB6805
:101F9000002BF9D17B68002283F83C2000231846EF
:101FA0001437BD465DF8047B704700BF1200001077
:101FB00000200140002301400000002083DE1B437D
:101FC00080B483B000AF7860784B5B68774A23F4C5
:101FD00040335360754B5A687B685B6873491343A1
:101FE0004B607B681B685A687B681B6822F48072B0
:101FF0005A607B681B6859687B681B691A027B689A
:102000001B680A435A607B681B685A687B681B68B8
:1020100022F040725A607B681B6859687B689A6836
:102020007B681B680A435A607B681B689A687B68F8
:102030001B6822F400629A607B681B6899687B6861
:10204000DA687B681B680A439A607B689B6A584A17
:10205000934222D07B681B689A687B681B6822F0D9
:1020600070629A607B681B6899687B689A6A7B6873
:102070001B680A439A607B681B689A687B681B68C8
:1020800022F040529A607B681B6899687B68DA6A24
:102090007B681B680A439A600FE07B681B689A683C
:1020A0007B681B6822F070629A607B681B689A6884
:1020B0007B681B6822F040529A607B681B689A68B4
:1020C0007B681B6822F002029A607B681B68996833
:1020D0007B689B695A007B681B680A439A607B682F
:1020E00093F82030002B1BD07B681B685A687B68F4
:1020F0001B6842F400625A607B681B685A687B6800
:102100001B6822F460425A607B681B6859687B68D0
:102110005B6A013B5A037B681B680A435A6007E00D
:102120007B681B685A687B681B6822F400625A60EF
:102130007B681B68DA6A7B681B6822F47002DA62CB
:102140007B681B68D96A7B68DB69013B1A057B6881
:102150001B680A43DA627B681B689A687B681B68A5
:1021600022F400729A607B681B6899687B6893F818
:1021700030305A027B681B680A439A607B681B6890
:102180009A687B681B6822F480629A607B681B688F
:1021900099687B685B699A027B681B680A439A604E
:1021A00000BF0C37BD465DF8047B7047002301403B
:1021B0000100000F80B584B000AF78607B689B6B36
:1021C000FB60FB681B6C03F05003002B3CD1FB68E9
:1021D0001B6C43F40072FB681A64FB681B689B6805
:1021E00003F04053002B2BD1FB689B69002B27D1B8
:1021F000FB681B68DB6A03F47003002B06D0FB68E6
:102200001B689B6803F48063002B19D1FB681B6873
:102210005A68FB681B6822F020025A60FB681B6C3E
:1022200023F48072FB681A64FB681B6C03F4805310
:10223000002B05D1FB681B6C43F00102FB681A649C
:10224000F868FEF799FE0EE0FB681B6C03F01003C4
:10225000002B03D0F868FFF753FD04E0FB689B6B8D
:10226000DB6C7868984700BF1037BD4680BD80B5ED
:1022700084B000AF78607B689B6BFB60F868FFF709
:102280002BFD00BF1037BD4680BD80B584B000AFC8
:1022900078607B689B6BFB60FB6840221A64FB687C
:1022A0005B6C43F00402FB685A64F868FFF728FD92
:1022B00000BF1037BD4680BD80B483B000AF7860EA
:1022C00000BF0C37BD465DF8047B704780B485B015
:1022D00000AF78607B6803F00703FB600B4BDB68A3
:1022E000BB60BA684FF6FF031340BB60FB681A027D
:1022F000BB681A43064B1343BB60044ABB68D360F8
:1023000000BF1437BD465DF8047B704700ED00E068
:102310000000FA0580B400AF044BDB681B0A03F031
:1023200007031846BD465DF8047B704700ED00E0EA
:1023300080B483B000AF0346FB7197F90730002BE0
:102340000BDBFB7903F01F02074997F907305B09A4
:10235000012000FA02F241F8232000BF0C37BD46ED
:102360005DF8047B704700BF00E100E080B483B0FB
:1023700000AF03463960FB7197F90730002B0ADB89
:102380003B68DAB20C4997F907301201D2B20B441C
:1023900083F800230AE03B68DAB20849FB7903F0CE
:1023A0000F03043B1201D2B20B441A7600BF0C3764
:1023B000BD465DF8047B704700E100E000ED00E001
:1023C00080B489B000AFF860B9607A60FB6803F050
:1023D0000703FB61FB69C3F10703042B28BF042338
:1023E000BB61FB690433062B02D9FB69033B00E0A8
:1023F00000237B614FF0FF32BB6902FA03F3DA433B
:10240000BB681A407B699A404FF0FF317B6901FA43
:1024100003F3D9437B680B40134318462437BD466A
:102420005DF8047B7047000080B582B000AF786033
:102430007B68013BB3F1807F01D301230FE00A4A9F
:102440007B68013B53600F214FF0FF30FFF78EFF99
:10245000054B00229A60044B07221A60002318469D
:102460000837BD4680BD00BF10E000E080B582B0F7
:1024700000AF78607868FFF729FF00BF0837BD46D6
:1024800080BD80B586B000AF0346B9607A60FB734B
:1024900000237B61FFF73EFF78617A68B96878694D
:1024A000FFF78EFF024697F90F3011461846FFF7E7
:1024B0005DFF00BF1837BD4680BD80B582B000AF5C
:1024C0000346FB7197F907301846FFF731FF00BF4D
:1024D0000837BD4680BD80B582B000AF78607868AF
:1024E000FFF7A2FF034618460837BD4680BD00002F
:1024F00080B586B000AF786000237B61FFF76EF98E
:1025000038617B68002B01D1012399E07B680222AE
:1025100083F835207B68002283F834207B681B68B1
:102520001A687B681B6822F001021A600FE0FFF74F
:1025300055F902463B69D31A052B08D97B6820223E
:102540005A657B68032283F83520032378E07B6893
:102550001B681B6803F00103002BE8D17B681B6834
:102560001B687B617A69384B13407B617B685A68D2
:102570007B689B681A437B68DB681A437B681B692E
:102580001A437B685B691A437B689B691A437B68C3
:10259000DB691A437B681B6A13437A6913437B61C7
:1025A0007B685B6A042B07D17B68DA6A7B681B6BEC
:1025B00013437A6913437B617B681B687A691A60ED
:1025C0007B681B685B697B617B6923F007037B6128
:1025D0007B685B6A7A6913437B617B685B6A042B67
:1025E00017D17B689B6A7A6913437B617B68DB6ADE
:1025F000002B0ED0786800F009FB0346002B08D0B2
:102600007B6840225A657B68012283F835200123CC
:1026100016E07B681B687A695A61786800F0C0FA36
:102620000346FB607B68DB6D3F229A40FB689A6043
:102630007B6800225A657B68012283F835200023DD
:1026400018461837BD4680BD3F8010E080B586B083
:1026500000AFF860B9607A603B600023FB75FB68EF
:102660009B6D3B61FB6893F83430012B01D1022351
:1026700048E0FB68012283F83420FB6893F835308A
:10268000DBB2012B37D1FB68022283F83520FB68CF
:1026900000225A653B687A68B968F86800F052FA17
:1026A000FB68DB6D3F229A403B699A60FB681B68C0
:1026B0001A68FB681B6842F016021A60FB681B6808
:1026C0005A69FB681B6842F080025A61FB681B6C08
:1026D000002B07D0FB681B681A68FB681B6842F078
:1026E00008021A60FB681B681A68FB681B6842F0E6
:1026F00001021A6005E0FB68002283F834200223FF
:10270000FB75FB7D18461837BD4680BD80B584B08B
:1027100000AF78607B689B6DFB60FFF75FF8B86087
:102720007B6893F83530DBB2022B08D07B688022BF
:102730005A657B68002283F83420012352E07B68CD
:102740001B681A687B681B6822F016021A607B6897
:102750001B685A697B681B6822F080025A617B689B
:102760001B6C002B03D17B689B6C002B07D07B6814
:102770001B681A687B681B6822F008021A607B6875
:102780001B681A687B681B6822F001021A6013E05C
:10279000FFF724F80246BB68D31A052B0CD97B68D7
:1027A00020225A657B68032283F835207B6800224B
:1027B00083F83420032315E07B681B681B6803F053
:1027C0000103002BE4D17B68DB6D3F229A40FB685C
:1027D0009A607B68012283F835207B68002283F8A9
:1027E0003420002318461037BD4680BD80B483B026
:1027F00000AF78607B6893F83530DBB2022B04D0F1
:102800007B6880225A6501230CE07B68052283F8EF
:1028100035207B681B681A687B681B6822F0010200
:102820001A60002318460C37BD465DF8047B7047DC
:1028300080B586B000AF78600023BB608E4B1B680C
:102840008E4AA2FB03239B0A7B617B689B6D3B61E5
:102850003B691B68FB607B68DB6D08229A40FB6864
:102860001340002B1AD07B681B681B6803F004031D
:10287000002B13D07B681B681A687B681B6822F0EA
:1028800004021A607B68DB6D08229A403B699A60FB
:102890007B685B6D43F001027B685A657B68DB6D8A
:1028A00001229A40FB681340002B12D07B681B6802
:1028B0005B6903F08003002B0BD07B68DB6D01228A
:1028C0009A403B699A607B685B6D43F002027B68CB
:1028D0005A657B68DB6D04229A40FB681340002B2D
:1028E00012D07B681B681B6803F00203002B0BD01F
:1028F0007B68DB6D04229A403B699A607B685B6D64
:1029000043F004027B685A657B68DB6D10229A40B5
:10291000FB681340002B43D07B681B681B6803F0E7
:102920000803002B3CD07B68DB6D10229A403B698A
:102930009A607B681B681B6803F48023002B18D007
:102940007B681B681B6803F40023002B08D17B689D
:102950001B6C002B24D07B681B6C786898471FE0A9
:102960007B689B6C002B1BD07B689B6C78689847BE
:1029700016E07B681B681B6803F48073002B07D18B
:102980007B681B681A687B681B6822F008021A6063
:102990007B681B6C002B03D07B681B6C78689847A6
:1029A0007B68DB6D20229A40FB681340002B00F00F
:1029B0008F807B681B681B6803F01003002B00F0FE
:1029C00087807B68DB6D20229A403B699A607B6838
:1029D00093F83530DBB2052B36D17B681B681A685B
:1029E0007B681B6822F016021A607B681B685A69B4
:1029F0007B681B6822F080025A617B681B6C002B8D
:102A000003D17B689B6C002B07D07B681B681A681E
:102A10007B681B6822F008021A607B68DB6D3F222E
:102A20009A403B699A607B68012283F835207B6875
:102A3000002283F834207B681B6D002B7ED07B68DE
:102A40001B6D7868984779E07B681B681B6803F406
:102A50008023002B1DD07B681B681B6803F40023B8
:102A6000002B0DD17B685B6C002B31D07B685B6CDD
:102A7000786898472CE000BF00000020B5814E1B0D
:102A80007B68DB6B002B23D07B68DB6B7868984717
:102A90001EE07B681B681B6803F48073002B0FD15A
:102AA0007B681B681A687B681B6822F010021A603A
:102AB0007B68012283F835207B68002283F834206C
:102AC0007B68DB6B002B03D07B68DB6B78689847F7
:102AD0007B685B6D002B32D07B685B6D03F001037C
:102AE000002B22D07B68052283F835207B681B6889
:102AF0001A687B681B6822F001021A60BB68013308
:102B0000BB607A699A4207D37B681B681B6803F035
:102B10000103002BF2D100E000BF7B68012283F8A3
:102B200035207B68002283F834207B68DB6C002B27
:102B300005D07B68DB6C7868984700E000BF1837E9
:102B4000BD4680BD80B485B000AFF860B9607A60E2
:102B50003B60FB681B681A68FB681B6822F48022D4
:102B60001A60FB681B683A685A60FB689B68402BD8
:102B700008D1FB681B687A689A60FB681B68BA68B2
:102B8000DA6007E0FB681B68BA689A60FB681B683C
:102B90007A68DA6000BF1437BD465DF8047B704781
:102BA00080B485B000AF78607B681B68DBB2103BF7
:102BB000134AA2FB03231B09FB60124AFB68134460
:102BC0001B781A467B68DA65FB68032B08D97B689B
:102BD0001B681A460C4B13401A1D7B689A6506E069
:102BE0007B681B681A46084B13407A6893657B68BC
:102BF0009B6D18461437BD465DF8047B704700BFD7
:102C0000ABAAAAAAD870000800FCFFFF80B485B068
:102C100000AF78600023FB737B689B6ABB607B68B6
:102C20009B69002B1FD1BB68032B56D801A252F819
:102C300023F000BF452C0008572C0008452C000845
:102C4000DB2C00087B68DB6A03F08073002B46D026
:102C50000123FB7343E07B68DB6AB3F1C07F40D1A3
:102C60000123FB733DE07B689B69B3F5005F21D1D5
:102C7000BB68032B37D801A252F823F08D2C000833
:102C8000932C00088D2C0008A52C00080123FB7351
:102C900030E07B68DB6A03F08073002B25D00123D2
:102CA000FB7322E07B68DB6AB3F1C07F1FD1012395
:102CB000FB731CE0BB68022B03D9BB68032B03D05A
:102CC00018E00123FB7315E07B68DB6A03F0807377
:102CD000002B0ED00123FB730BE000BF0AE000BF06
:102CE00008E000BF06E000BF04E000BF02E000BF54
:102CF00000E000BFFB7B18461437BD465DF8047B3F
:102D0000704700BF80B489B000AF7860396000239D
:102D1000FB6100237B6100233B610023BB61002337
:102D2000FB6175E10122FB6902FA03F37B613B68F9
:102D30001B687A6913403B613A697B699A4240F0AB
:102D400064813B685B6803F00303012B05D03B689B
:102D50005B6803F00303022B30D17B689B68BB6187
:102D6000FB695B00032202FA03F3DB43BA691340F9
:102D7000BB613B68DA68FB695B0002FA03F3BA697E
:102D80001343BB617B68BA699A607B685B68BB610F
:102D90000122FB6902FA03F3DB43BA691340BB610A
:102DA0003B685B681B0903F00102FB6902FA03F34D
:102DB000BA691343BB617B68BA695A603B685B6858
:102DC00003F00303032B17D07B68DB68BB61FB694F
:102DD0005B00032202FA03F3DB43BA691340BB61D1
:102DE0003B689A68FB695B0002FA03F3BA69134314
:102DF000BB617B68BA69DA603B685B6803F0030318
:102E0000022B23D1FB69DA087B68083253F82230A1
:102E1000BB61FB6903F007039B000F2202FA03F377
:102E2000DB43BA691340BB613B681A69FB6903F075
:102E300007039B0002FA03F3BA691343BB61FB6902
:102E4000DA087B680832B96943F822107B681B688E
:102E5000BB61FB695B00032202FA03F3DB43BA693F
:102E60001340BB613B685B6803F00302FB695B00D6
:102E700002FA03F3BA691343BB617B68BA691A604B
:102E80003B685B6803F44033002B00F0BE80664B68
:102E90005B6C654A43F480435364634B5B6C03F49F
:102EA0008043FB60FB68614AFB699B08023352F870
:102EB0002330BB61FB6903F003039B000F2202FA7E
:102EC00003F3DB43BA691340BB617B68584A934202
:102ED00037D07B68574A934231D07B68564A934239
:102EE0002BD07B68554A934225D07B68544A934245
:102EF0001FD07B68534A934219D07B68524A934251
:102F000013D07B68514A93420DD07B68504A93425C
:102F100007D07B684F4A934201D1092312E00A236C
:102F200010E008230EE007230CE006230AE0052347
:102F300008E0042306E0032304E0022302E0012367
:102F400000E00023FA6902F0030292009340BA699C
:102F50001343BB613549FB699B080233BA6941F8E9
:102F600023203D4B9B68BB613B69DB43BA6913403F
:102F7000BB613B685B6803F48013002B03D0BA6924
:102F80003B691343BB61344ABB699360324BDB68D6
:102F9000BB613B69DB43BA691340BB613B685B685B
:102FA00003F40013002B03D0BA693B691343BB61E0
:102FB000294ABB69D360284B5B68BB613B69DB4333
:102FC000BA691340BB613B685B6803F40033002BB4
:102FD00003D0BA693B691343BB611F4ABB695360A5
:102FE0001D4B1B68BB613B69DB43BA691340BB6186
:102FF0003B685B6803F48033002B03D0BA693B69FC
:103000001343BB61144ABB691360FB690133FB6165
:10301000FB690F2B7FF686AE00BF00BF2437BD468D
:103020005DF8047B704700BF003802400038014063
:10303000000002400004024000080240000C024070
:10304000001002400014024000180240001C024020
:103050000020024000240240003C014080B483B0C4
:1030600000AF78600B467B8013467B707B78002B2B
:1030700003D07A887B689A6103E07B881A047B68B6
:103080009A6100BF0C37BD465DF8047B704780B481
:1030900085B000AF78600B467B807B685B69FB6026
:1030A0007A88FB6813401A04FB68D9437B880B407D
:1030B0001A437B689A6100BF1437BD465DF8047BF4
:1030C0007047000080B400AF054B1B68044A43F40E
:1030D0008073136000BFBD465DF8047B704700BF7E
:1030E0000070004080B582B000AF00237B60234BAE
:1030F0001B6C224A43F080531364204B1B6C03F07B
:1031000080533B603B681E4B1B681D4A43F4803371
:103110001360FEF763FB786009E0FEF75FFB024691
:103120007B68D31AB3F57A7F01D9032322E0144BCD
:103130005B6803F48033B3F5803FEED1104B1B681E
:103140000F4A43F400331360FEF748FB786009E050
:10315000FEF744FB02467B68D31AB3F57A7F01D9A8
:10316000032307E0064B5B6803F40033B3F5003F2D
:10317000EED1002318460837BD4680BD0038024016
:103180000070004080B586B000AF78600023FB750A
:103190007B68002B01D101239BE27B681B6803F055
:1031A0000103002B00F08780964B9B6803F00C0313
:1031B000042B0CD0934B9B6803F00C03082B12D10B
:1031C000904B5B6803F48003B3F5800F0BD18D4BFC
:1031D0001B6803F40033002B6CD07B685B68002B0A
:1031E00068D1012375E27B685B68B3F5803F06D147
:1031F000844B1B68834A43F4803313602EE07B6862
:103200005B68002B0CD17F4B1B687E4A23F4803314
:1032100013607C4B1B687B4A23F4802313601DE002
:103220007B685B68B3F5A02F0CD1764B1B68754AA1
:1032300043F480231360734B1B68724A43F480335A
:1032400013600BE06F4B1B686E4A23F480331360EE
:103250006C4B1B686B4A23F4802313607B685B68AC
:10326000002B13D0FEF7BAFA386108E0FEF7B6FA81
:1032700002463B69D31A642B01D9032329E2614B2F
:103280001B6803F40033002BF0D014E0FEF7A6FA1D
:10329000386108E0FEF7A2FA02463B69D31A642BB4
:1032A00001D9032315E2574B1B6803F40033002BAD
:1032B000F0D100E000BF7B681B6803F00203002B25
:1032C00069D0504B9B6803F00C03002B0BD04D4B87
:1032D0009B6803F00C03082B1CD14A4B5B6803F47A
:1032E0008003002B16D1474B1B6803F00203002B11
:1032F00005D07B68DB68012B01D00123E9E1414B5C
:103300001B6823F0F8027B681B69DB003D4913430F
:103310000B6040E07B68DB68002B23D0394B1B68D7
:10332000384A43F001031360FEF758FA386108E0A9
:10333000FEF754FA02463B69D31A022B01D9032344
:10334000C7E1304B1B6803F00203002BF0D02D4B7C
:103350001B6823F0F8027B681B69DB0029491343D3
:103360000B6018E0274B1B68264A23F0010313600B
:10337000FEF734FA386108E0FEF730FA02463B699E
:10338000D31A022B01D90323A3E11E4B1B6803F0C0
:103390000203002BF0D17B681B6803F00803002BAD
:1033A00038D07B685B69002B19D0164B5B6F154AD0
:1033B00043F001035367FEF711FA386108E0FEF7A6
:1033C0000DFA02463B69D31A022B01D9032380E18F
:1033D0000C4B5B6F03F00203002BF0D01AE0094B9B
:1033E0005B6F084A23F001035367FEF7F7F9386172
:1033F0000AE0FEF7F3F902463B69D31A022B03D920
:10340000032366E100380240924B5B6F03F0020336
:10341000002BEED17B681B6803F00403002B00F047
:10342000A4808C4B1B6C03F08053002B0DD1894B77
:103430001B6C884A43F080531364864B1B6C03F06B
:103440008053BB60BB680123FB75834B1B6803F48F
:103450008073002B18D1804B1B687F4A43F4807324
:103460001360FEF7BBF9386108E0FEF7B7F90246D2
:103470003B69D31A642B01D903232AE1764B1B68DD
:1034800003F48073002BF0D07B689B68012B06D17E
:10349000704B1B6F6F4A43F0010313672DE07B688D
:1034A0009B68002B0CD16B4B1B6F6A4A23F0010306
:1034B0001367684B1B6F674A23F0040313671CE014
:1034C0007B689B68052B0CD1624B1B6F614A43F0F4
:1034D000040313675F4B1B6F5E4A43F001031367DE
:1034E0000BE05C4B1B6F5B4A23F001031367594BE6
:1034F0001B6F584A23F0040313677B689B68002BFB
:1035000015D0FEF76BF938610AE0FEF767F902465D
:103510003B69D31A41F28832934201D90323D8E0A0
:103520004C4B1B6F03F00203002BEED014E0FEF7B0
:1035300055F938610AE0FEF751F902463B69D31AA2
:1035400041F28832934201D90323C2E0414B1B6F01
:1035500003F00203002BEED1FB7D012B05D13D4B87
:103560001B6C3C4A23F0805313647B689B69002BDF
:1035700000F0AE80374B9B6803F00C03082B6DD036
:103580007B689B69022B4BD1324B1B68314A23F07D
:1035900080731360FEF722F9386108E0FEF71EF928
:1035A00002463B69D31A022B01D9032391E0294B30
:1035B0001B6803F00073002BF0D17B68DA697B682D
:1035C0001B6A1A437B685B6A9B011A437B689B6A90
:1035D0005B08013B1B041A437B68DB6A1B061A432A
:1035E0007B681B6B1B071B4913434B60194B1B6804
:1035F000184A43F080731360FEF7F0F8386108E072
:10360000FEF7ECF802463B69D31A022B01D90323DB
:103610005FE0104B1B6803F00073002BF0D057E005
:103620000C4B1B680B4A23F080731360FEF7D6F82F
:10363000386108E0FEF7D2F802463B69D31A022B44
:1036400001D9032345E0034B1B6803F00073002BF3
:10365000F0D13DE000380240007000401F4B5B6835
:10366000FB607B689B69012B30D0FB6803F4800210
:103670007B68DB699A4229D1FB6803F03F027B68D3
:103680001B6A9A4222D1FA6847F6C07313407A68DF
:10369000526A9201934219D1FB6803F440327B686D
:1036A0009B6A5B08013B1B049A420FD1FB6803F045
:1036B00070627B68DB6A1B069A4207D1FB6803F0E5
:1036C000E0427B681B6B1B079A4201D0012300E09C
:1036D000002318461837BD4680BD00BF00380240A1
:1036E00080B584B000AF786039600023FB607B68F0
:1036F000002B01D10123D0E06A4B1B6803F00F03BC
:103700003A689A4210D9674B1B6823F00F0265494B
:103710003B6813430B60634B1B6803F00F033A686D
:103720009A4201D00123B8E07B681B6803F00203D2
:10373000002B20D07B681B6803F00403002B05D00E
:10374000594B9B68584A43F4E05393607B681B686D
:1037500003F00803002B05D0534B9B68524A43F4F7
:1037600060439360504B9B6823F0F0027B689B683A
:103770004D4913438B607B681B6803F00103002BEA
:1037800040D07B685B68012B07D1474B1B6803F473
:103790000033002B15D101237FE07B685B68022B8F
:1037A00007D1414B1B6803F00073002B09D10123A3
:1037B00073E03D4B1B6803F00203002B01D1012392
:1037C0006BE0394B9B6823F003027B685B683649EA
:1037D00013438B60FEF702F8F8600AE0FDF7FEFF86
:1037E0000246FB68D31A41F28832934201D903237F
:1037F00053E02D4B9B6803F00C027B685B689B00D9
:103800009A42EBD1274B1B6803F00F033A689A42A8
:1038100010D2244B1B6823F00F0222493B6813434C
:103820000B60204B1B6803F00F033A689A4201D0EB
:10383000012332E07B681B6803F00403002B08D0EF
:10384000194B9B6823F4E0527B68DB6816491343ED
:103850008B607B681B6803F00803002B09D0124BB8
:103860009B6823F460427B681B69DB000E491343AD
:103870008B6000F021F802460B4B9B681B0903F09C
:103880000F030A49CB5C22FA03F3094A1360094B80
:103890001B681846FDF75EFF002318461037BD462B
:1038A00080BD00BF003C024000380240C0700008EC
:1038B00000000020040000202DE9B04F94B000AFBC
:1038C00000237B640023FB6400233B640023BB6470
:1038D000794B9B6803F00C03082B0DD0082B00F2EA
:1038E000E180002B02D0042B03D0DBE0734BBB64E0
:1038F000DBE0734BBB64D8E06F4B5B6803F03F03C6
:103900007B646D4B5B6803F48003002B63D06A4BD0
:103910005B689B090022BB63FA63BB6BC3F30803BC
:103920003B6300237B63D7E90C4522462B464FF0CF
:1039300000004FF00001590141EAD26150010246F6
:103940000B462146511A3961294663EB01037B611D
:103950004FF000024FF00003D7E904AB59468B014A
:10396000514643EA916351468A015146B2EB010840
:10397000594663EB01094FF000024FF000034FEA94
:10398000C90343EA58734FEAC80290469946234652
:1039900018EB0303BB602B4649EB0303FB604FF0BE
:1039A00000024FF00003D7E9024529464B022146A9
:1039B00043EAD15321464A02104619467B6C002245
:1039C000BB62FA62D7E90A23FCF78AFC02460B467F
:1039D0001346FB6458E0384B5B689B09002218468D
:1039E0001146C0F308033B6200237B62D7E90889D4
:1039F00042464B464FF000004FF00001590141EAAA
:103A0000D261500102460B464146B2EB010A4946DB
:103A100063EB010B4FF000024FF000034FEA8B13F2
:103A200043EA9A634FEA8A12B2EB0A0463EB0B058E
:103A30004FF000024FF00003EB0043EA5473E20042
:103A400014461D464346E3183B604B4645EB0303D3
:103A50007B604FF000024FF00003D7E90045294694
:103A60008B02214643EA915321468A0210461946A9
:103A70007B6C0022BB61FA61D7E90623FCF730FCBE
:103A800002460B461346FB640B4B5B681B0C03F0B2
:103A9000030301335B003B64FA6C3B6CB2FBF3F352
:103AA000BB6402E0054BBB6400BFBB6C18465037DB
:103AB000BD46BDE8B08F00BF003802400024F400CE
:103AC00000127A0080B400AF034B1B681846BD4655
:103AD0005DF8047B704700BF0000002080B500AF98
:103AE000FFF7F0FF0246054B9B689B0A03F00703B4
:103AF0000349CB5C22FA03F3184680BD003802402C
:103B0000D070000880B500AFFFF7DCFF0246054B20
:103B10009B685B0B03F007030349CB5C22FA03F3BA
:103B2000184680BD00380240D070000880B588B0CB
:103B300000AF786000237B6100233B610023FB60C2
:103B40000023FB610023BB617B681B6803F001035A
:103B5000002B12D0694B9B68684A23F400039360E2
:103B6000664B9A687B685B6B644913438B607B6828
:103B70005B6B002B01D10123FB617B681B6803F4A5
:103B80000023002B17D05D4BD3F88C3023F4401268
:103B90007B68DB6B59491343C1F88C307B68DB6B66
:103BA000B3F5801F01D10123FB617B68DB6B002B28
:103BB00001D10123BB617B681B6803F48013002BD8
:103BC00017D04E4BD3F88C3023F440027B681B6C2B
:103BD0004A491343C1F88C307B681B6CB3F5800FE6
:103BE00001D10123FB617B681B6C002B01D10123F8
:103BF000BB617B681B6803F08073002B01D001233D
:103C0000FB617B681B6803F02003002B00F08B80B6
:103C10003A4B1B6C394A43F080531364374B1B6C8F
:103C200003F08053BB60BB68354B1B68344A43F4D8
:103C300080731360FDF7D2FD786108E0FDF7CEFDDB
:103C400002467B69D31A642B01D903238FE32C4BE3
:103C50001B6803F48073002BF0D0284B1B6F03F418
:103C600040733B613B69002B35D07B681B6B03F4D1
:103C700040733A699A422ED0204B1B6F23F4407355
:103C80003B611E4B1B6F1D4A43F4803313671B4B74
:103C90001B6F1A4A23F480331367184A3B69136772
:103CA000164B1B6F03F00103012B14D1FDF796FD9A
:103CB00078610AE0FDF792FD02467B69D31A41F272
:103CC0008832934201D9032351E30C4B1B6F03F05D
:103CD0000203002BEED07B681B6B03F44073B3F53B
:103CE000407F11D1054B9B6823F4F8127B68196B58
:103CF000044B0B40014913438B600BE0003802403A
:103D000000700040FFFCFF0FAC4B9B68AB4A23F4F4
:103D1000F8139360A94B1A6F7B681B6BC3F30B03FB
:103D2000A64913430B677B681B6803F01003002B45
:103D300010D0A24BD3F88C30A04A23F08073C2F885
:103D40008C309E4BD3F88C207B689B6B9B49134334
:103D5000C1F88C307B681B6803F48043002B0AD0C9
:103D6000964BD3F8903023F440327B685B6E9349D6
:103D70001343C1F890307B681B6803F40043002BA9
:103D80000AD08E4BD3F8903023F440227B689B6E90
:103D90008A491343C1F890307B681B6803F4803371
:103DA000002B0AD0854BD3F8903023F440127B6867
:103DB000DB6E82491343C1F890307B681B6803F4C3
:103DC0000033002B0AD07D4BD3F8903023F440020F
:103DD0007B681B6F79491343C1F890307B681B687F
:103DE00003F04003002B0AD0744BD3F8903023F03B
:103DF00003027B685B6C71491343C1F890307B68A8
:103E00001B6803F08003002B0AD06C4BD3F8903072
:103E100023F00C027B689B6C68491343C1F8903017
:103E20007B681B6803F48073002B0AD0634BD3F8C4
:103E3000903023F030027B68DB6C60491343C1F89B
:103E400090307B681B6803F40073002B0AD05B4B37
:103E5000D3F8903023F0C0027B681B6D57491343A1
:103E6000C1F890307B681B6803F48063002B0AD094
:103E7000524BD3F8903023F440727B685B6D4F490E
:103E80001343C1F890307B681B6803F40063002B78
:103E90000AD04A4BD3F8903023F440627B689B6D84
:103EA00046491343C1F890307B681B6803F4805384
:103EB000002B0AD0414BD3F8903023F440527B685A
:103EC000DB6D3E491343C1F890307B681B6803F4F7
:103ED0000053002B0AD0394BD3F8903023F44042E2
:103EE0007B681B6E35491343C1F890307B681B68B3
:103EF00003F48003002B0AD0304BD3F8903023F02A
:103F000080627B689B6F2D491343C1F890307B68BA
:103F10001B6803F40013002B11D0284BD3F890300A
:103F200023F000627B68DB6F24491343C1F89030B3
:103F30007B68DB6FB3F1006F01D10123BB617B684C
:103F40001B6803F00803002B01D00123BB617B68D1
:103F50001B6803F48023002B0AD0184BD3F8903051
:103F600023F040727B685B6F14491343C1F89030B3
:103F70007B681B6803F40003002B0BD00F4BD3F8B6
:103F8000903023F080527B68D3F880300B49134384
:103F9000C1F890307B681B6803F08063002B0FD062
:103FA000064BD3F8903023F000527B68D3F884306E
:103FB00002491343C1F8903002E000BF00380240CC
:103FC0007B681B6803F00063002B0BD08A4BD3F88F
:103FD0008C3023F000727B68D3F888308649134315
:103FE000C1F88C307B681B6803F08053002B0BD02A
:103FF000814BD3F88C3023F080627B68D3F88C300F
:104000007D491343C1F88C30FB69012B06D07B68D6
:104010001B6803F00073002B00F0D680764B1B6802
:10402000754A23F080631360FDF7D8FB786108E0E0
:10403000FDF7D4FB02467B69D31A642B01D9032315
:1040400095E16D4B1B6803F00063002BF0D17B689A
:104050001B6803F00103002B21D07B685B6B002BF6
:104060001DD1654BD3F884301B0C03F003033B6177
:10407000614BD3F884301B0E03F00F03FB607B68A9
:104080005B689A013B691B041A43FB681B061A43D1
:104090007B689B681B0758491343C1F884307B68D1
:1040A0001B6803F40023002B04D07B68DB6BB3F5A3
:1040B000801F0AD07B681B6803F48013002B2ED06E
:1040C0007B681B6CB3F5800F29D14B4BD3F8843040
:1040D0001B0C03F003033B61474BD3F884301B0FE9
:1040E00003F00703FB607B685B689A013B691B0474
:1040F0001A437B68DB681B061A43FB681B073E49B3
:104100001343C1F884303C4BD3F88C3023F01F02AA
:104110007B685B6A013B38491343C1F88C307B688C
:104120001B6803F08073002B1DD0334BD3F8843011
:104130001B0E03F00F033B612F4BD3F884301B0F92
:1041400003F00703FB607B685B689A017B681B696F
:104150001B041A433B691B061A43FB681B072649CD
:104160001343C1F884307B681B6803F00073002B95
:1041700011D07B685B689A017B681B691B041A433A
:104180007B68DB681B061A437B689B681B071A4920
:104190001343C1F88430184B1B68174A43F08063FF
:1041A0001360FDF71BFB786108E0FDF717FB024683
:1041B0007B69D31A642B01D90323D8E00E4B1B680B
:1041C00003F00063002BF0D0BB69012B40F0CE80E0
:1041D000094B1B68084A23F080531360FDF7FEFA71
:1041E00078610BE0FDF7FAFA02467B69D31A642B7B
:1041F00004D90323BBE000BF003802405E4B1B68BC
:1042000003F00053B3F1005FECD07B681B6803F44C
:104210000023002B03D07B68DB6B002B09D07B686D
:104220001B6803F48013002B2ED07B681B6C002BC3
:104230002AD1514BD3F888301B0C03F003033B61A8
:104240004D4BD3F888301B0F03F00703FB607B68EE
:104250005B699A013B691B041A437B689B691B06D7
:104260001A43FB681B0744491343C1F88830424B8B
:10427000D3F88C3023F4F8527B689B6A013B1B0215
:104280003D491343C1F88C307B681B6803F400136D
:10429000002B22D07B68DB6FB3F1006F1DD1364B52
:1042A000D3F888301B0E03F00F033B61324BD3F879
:1042B00088301B0F03F00703FB607B685B699A0182
:1042C0007B681B6A1B041A433B691B061A43FB6885
:1042D0001B0729491343C1F888307B681B6803F02A
:1042E0000803002B28D0244BD3F888301B0E03F092
:1042F0000F033B61204BD3F888301B0C03F0030302
:10430000FB607B685B699A01FB681B041A433B698D
:104310001B061A437B68DB691B0717491343C1F867
:104320008830154BD3F88C3023F440327B68DB6A3D
:1043300011491343C1F88C300F4B1B680E4A43F0F0
:1043400080531360FDF74AFA786108E0FDF746FAFA
:1043500002467B69D31A642B01D9032307E0064B7D
:104360001B6803F00053B3F1005FEFD10023184640
:104370002037BD4680BD00BF0038024080B582B006
:1043800000AF78607B68002B01D1012349E07B6896
:1043900093F83D30DBB2002B06D17B68002283F816
:1043A0003C207868FCF7F0FF7B68022283F83D2010
:1043B0007B681A687B6804331946104600F0F4FBEA
:1043C0007B68012283F848207B68012283F83E2025
:1043D0007B68012283F83F207B68012283F840201C
:1043E0007B68012283F841207B68012283F8422008
:1043F0007B68012283F843207B68012283F84420F4
:104400007B68012283F845207B68012283F84620DF
:104410007B68012283F847207B68012283F83D20D6
:10442000002318460837BD4680BD000080B485B023
:1044300000AF78607B6893F83D30DBB2012B01D090
:10444000012354E07B68022283F83D207B681B68CF
:10445000DA687B681B6842F00102DA607B681B68DF
:10446000264A934222D07B681B68B3F1804F1DD04F
:104470007B681B68224A934218D07B681B68214ADC
:10448000934213D07B681B681F4A93420ED07B680F
:104490001B681E4A934209D07B681B681C4A9342E2
:1044A00004D07B681B681B4A934215D17B681B684C
:1044B0009A68194B1340FB60FB68062B15D0FB680C
:1044C000B3F5803F11D07B681B681A687B681B6856
:1044D00042F001021A6008E07B681B681A687B687A
:1044E0001B6842F001021A6000E000BF002318467A
:1044F0001437BD465DF8047B704700BF00000140E3
:104500000004004000080040000C0040000401408E
:1045100000400140001800400700010080B586B04F
:1045200000AF786039607B68002B01D101238FE0F8
:104530007B6893F83D30DBB2002B06D17B6800220C
:1045400083F83C207868FCF7DBFE7B68022283F866
:104550003D207B681B6899687B681A683E4B0B405E
:1045600093607B681A687B6804331946104600F034
:104570001BFB7B681B689B687B617B681B689B6976
:104580003B617B681B681B6AFB603B681B687A6940
:1045900013437B613A69314B13403B613B689A6836
:1045A0003B689B691B0213433A6913433B613A69B9
:1045B0002B4B13403B613A692A4B13403B613B68EC
:1045C000DA683B68DB691B0213433A6913433B61BA
:1045D0003B681B691A013B681B6A1B0313433A695A
:1045E00013433B61FB6823F02203FB60FB6823F06D
:1045F0008803FB603B685A683B685B691B01134397
:10460000FA681343FB607B681B687A699A607B6871
:104610001B683A699A617B681B68FA681A627B6852
:10462000012283F848207B68012283F83E207B68C2
:10463000012283F83F207B68012283F844207B68B5
:10464000012283F845207B68012283F83D20002366
:1046500018461837BD4680BDF8BFFEFFFCFCFFFFC3
:10466000F3F3FFFF0F0FFFFF80B584B000AF78605A
:1046700039607B6893F83E30FB737B6893F83F307A
:10468000BB737B6893F844307B737B6893F8453049
:104690003B733B68002B10D1FB7B012B02D17B7B52
:1046A000012B01D0012369E07B68022283F83E20C0
:1046B0007B68022283F8442031E03B68042B10D150
:1046C000BB7B012B02D13B7B012B01D0012355E0A9
:1046D0007B68022283F83F207B68022283F8452012
:1046E0001DE0FB7B012B08D1BB7B012B05D17B7B24
:1046F000012B02D13B7B012B01D001233EE07B68E3
:10470000022283F83E207B68022283F83F207B68E8
:10471000022283F844207B68022283F845203B680C
:10472000002B03D03B68042B08D00FE07B681B688C
:1047300001220021184600F071FB16E07B681B681F
:1047400001220421184600F069FB0EE07B681B681B
:1047500001220021184600F061FB7B681B680122E2
:104760000421184600F05AFB00BF7B681B681A68DA
:104770007B681B6842F001021A600023184610375C
:10478000BD4680BD80B582B000AF78607B681B6895
:104790001B6903F00203022B22D17B681B68DB68D4
:1047A00003F00203022B1BD17B681B686FF002022F
:1047B0001A617B6801221A777B681B689B6903F08A
:1047C0000303002B03D0786800F0D0F905E0786887
:1047D00000F0C2F9786800F0D3F97B6800221A77FC
:1047E0007B681B681B6903F00403042B22D17B68E0
:1047F0001B68DB6803F00403042B1BD17B681B6878
:104800006FF004021A617B6802221A777B681B68CA
:104810009B6903F44073002B03D0786800F0A6F97D
:1048200005E0786800F098F9786800F0A9F97B68ED
:1048300000221A777B681B681B6903F00803082BAA
:1048400022D17B681B68DB6803F00803082B1BD1AF
:104850007B681B686FF008021A617B6804221A7774
:104860007B681B68DB6903F00303002B03D07868C7
:1048700000F07CF905E0786800F06EF9786800F0E7
:104880007FF97B6800221A777B681B681B6903F03D
:104890001003102B22D17B681B68DB6803F0100328
:1048A000102B1BD17B681B686FF010021A617B68AC
:1048B00008221A777B681B68DB6903F44073002BBE
:1048C00003D0786800F052F905E0786800F044F908
:1048D000786800F055F97B6800221A777B681B68BE
:1048E0001B6903F00103012B0ED17B681B68DB6899
:1048F00003F00103012B07D17B681B686FF00102F5
:104900001A617868FCF796FA7B681B681B6903F0EC
:104910008003802B0ED17B681B68DB6803F080036B
:10492000802B07D17B681B686FF080021A61786862
:1049300000F032FB7B681B681B6903F48073B3F5DE
:10494000807F0ED17B681B68DB6803F08003802BBF
:1049500007D17B681B686FF480721A61786800F079
:1049600025FB7B681B681B6903F04003402B0ED1BD
:104970007B681B68DB6803F04003402B07D17B6832
:104980001B686FF040021A61786800F003F97B68D9
:104990001B681B6903F02003202B0ED17B681B686A
:1049A000DB6803F02003202B07D17B681B686FF0C6
:1049B00020021A61786800F0E5FA00BF0837BD46AA
:1049C00080BD000080B584B000AF786039600023FE
:1049D000FB737B6893F83C30012B01D10223B4E0D8
:1049E0007B68012283F83C207B68022283F83D200B
:1049F0007B681B689B68BB60BA68564B1340BB6002
:104A0000BB6823F47F43BB607B681B68BA689A600D
:104A10003B681B68B3F5005F3ED0B3F5005F00F262
:104A20008780B3F5805F00F08680B3F5805F7FD824
:104A3000702B1AD0702B7BD8602B50D0602B77D87E
:104A4000502B3CD0502B73D8402B58D0402B6FD8D4
:104A5000302B64D0302B6BD8202B60D0202B67D824
:104A6000002B5CD0102B5AD062E07B6818683B6842
:104A700099683B685A683B68DB6800F0AFF97B686F
:104A80001B689B68BB60BB6843F07703BB607B68B7
:104A90001B68BA689A604FE07B6818683B68996841
:104AA0003B685A683B68DB6800F098F97B681B68D4
:104AB0009A687B681B6842F480429A603CE07B689D
:104AC00018683B6859683B68DB681A4600F00CF9C7
:104AD0007B681B685021184600F065F92CE07B6864
:104AE00018683B6859683B68DB681A4600F02BF988
:104AF0007B681B686021184600F055F91CE07B6854
:104B000018683B6859683B68DB681A4600F0ECF8A7
:104B10007B681B684021184600F045F90CE07B6873
:104B20001A683B681B681946104600F03CF903E020
:104B30000123FB7300E000BF7B68012283F83D2066
:104B40007B68002283F83C20FB7B18461037BD466B
:104B500080BD00BF88FFFEFF80B483B000AF7860E7
:104B600000BF0C37BD465DF8047B704780B483B04E
:104B700000AF786000BF0C37BD465DF8047B70471E
:104B800080B483B000AF786000BF0C37BD465DF8DD
:104B9000047B704780B483B000AF786000BF0C37EF
:104BA000BD465DF8047B704780B485B000AF786087
:104BB00039607B681B68FB607B68404A934213D076
:104BC0007B68B3F1804F0FD07B683D4A93420BD096
:104BD0007B683C4A934207D07B683B4A934203D0B0
:104BE0007B683A4A934208D1FB6823F07003FB606C
:104BF0003B685B68FA681343FB607B682F4A93420B
:104C00002BD07B68B3F1804F27D07B682C4A93422E
:104C100023D07B682B4A93421FD07B682A4A934259
:104C20001BD07B68294A934217D07B68284A93425D
:104C300013D07B68274A93420FD07B68264A934261
:104C40000BD07B68254A934207D07B68244A934265
:104C500003D07B68234A934208D1FB6823F4407356
:104C6000FB603B68DB68FA681343FB60FB6823F07A
:104C700080023B685B691343FB607B68FA681A60DB
:104C80003B689A687B68DA623B681A687B689A625C
:104C90007B680A4A934203D07B680C4A934203D153
:104CA0003B681A697B681A637B6801225A6100BFFE
:104CB0001437BD465DF8047B704700BF000001401B
:104CC0000004004000080040000C004000040140C7
:104CD00000400140004401400048014000180040ED
:104CE000001C00400020004080B487B000AFF86096
:104CF000B9607A60FB681B6A7B61FB681B6A23F002
:104D00000102FB681A62FB689B693B613B6923F007
:104D1000F0033B617B681B013A6913433B617B698C
:104D200023F00A037B617A69BB6813437B61FB68EC
:104D30003A699A61FB687A691A6200BF1C37BD46FE
:104D40005DF8047B704780B487B000AFF860B9604D
:104D50007A60FB681B6A23F01002FB681A62FB682A
:104D60009B697B61FB681B6A3B617B6923F4704331
:104D70007B617B681B037A6913437B613B6923F08A
:104D8000A0033B61BB681B013A6913433B61FB68AD
:104D90007A699A61FB683A691A6200BF1C37BD469E
:104DA0005DF8047B704780B485B000AF78603960EF
:104DB0007B689B68FB60FB6823F07003FB603A68CC
:104DC000FB68134343F00703FB607B68FA689A6053
:104DD00000BF1437BD465DF8047B704780B487B0D0
:104DE00000AFF860B9607A603B60FB689B687B61EC
:104DF0007B6923F47F437B613B681A027B681A431B
:104E0000BB6813437A6913437B61FB687A699A60D4
:104E100000BF1C37BD465DF8047B704780B487B087
:104E200000AFF860B9607A60BB6803F01F0301222D
:104E300002FA03F37B61FB681A6A7B69DB431A4061
:104E4000FB681A62FB681A6ABB6803F01F03796883
:104E500001FA03F31A43FB681A6200BF1C37BD4610
:104E60005DF8047B7047000080B485B000AF7860C7
:104E700039607B6893F83C30012B01D102236DE04F
:104E80007B68012283F83C207B68022283F83D2066
:104E90007B681B685B68FB607B681B689B68BB600A
:104EA0007B681B68304A934204D07B681B682F4A9A
:104EB000934208D1FB6823F47003FB603B685B6896
:104EC000FA681343FB60FB6823F07003FB603B68E8
:104ED0001B68FA681343FB607B681B68FA685A60BA
:104EE0007B681B68204A934222D07B681B68B3F121
:104EF000804F1DD07B681B681D4A934218D07B6889
:104F00001B681C4A934213D07B681B681A4A934261
:104F10000ED07B681B68154A934209D07B681B68DA
:104F2000164A934204D07B681B68154A93420CD101
:104F3000BB6823F08003BB603B689B68BA6813437F
:104F4000BB607B681B68BA689A607B68012283F843
:104F50003D207B68002283F83C200023184614374C
:104F6000BD465DF8047B704700000140000401402D
:104F70000004004000080040000C004000400140D8
:104F80000018004080B483B000AF786000BF0C37D9
:104F9000BD465DF8047B704780B483B000AF786095
:104FA00000BF0C37BD465DF8047B704780B483B00A
:104FB00000AF786000BF0C37BD465DF8047B7047DA
:104FC00080B582B000AF78607B68002B01D10123EF
:104FD00040E07B689B6F002B06D17B68002283F842
:104FE00074207868FCF712FA7B6824229A677B6841
:104FF0001B681A687B681B6822F001021A607868D7
:1050000000F0F2FB0346012B01D1012322E07B6873
:105010005B6A002B02D0786800F04AFE7B681B6850
:105020005A687B681B6822F490425A607B681B6850
:105030009A687B681B6822F02A029A607B681B686A
:105040001A687B681B6842F001021A60786800F0F9
:10505000D1FE034618460837BD4680BD80B48BB0EC
:1050600000AFF860B9601346FB80FB689B6F202B94
:1050700056D1BB68002B02D0FB88002B01D1012345
:105080004FE0FB6893F87430012B01D1022348E014
:10509000FB68012283F87420FB68BA68DA64FB6855
:1050A000FA88A3F85020FB68FA88A3F85220FB681E
:1050B00000229A66FB680022C3F88020FB68212248
:1050C0009A67FB689B68B3F5805F07D1FB681B6933
:1050D000002B03D1FB68164A9A6602E0FB68154A6A
:1050E0009A66FB68002283F87420FB681B687B616A
:1050F0007B6953E8003F3B613B6943F080037B627F
:10510000FB681B681A467B6A3B62FA61F9693A6A76
:1051100041E80023BB61BB69002BE6D1002300E01E
:10512000022318462C37BD465DF8047B704700BF4C
:105130004D6300089762000880B58AB000AFF86040
:10514000B9601346FB80FB68DB6F202B3DD1BB6849
:10515000002B02D0FB88002B01D1012336E0FB6835
:1051600093F87430012B01D102232FE0FB68012258
:1051700083F87420FB6800221A66FB681B685B6872
:1051800003F40003002B18D0FB681B687B617B696C
:1051900053E8003F3B613B6943F080637B62FB68FF
:1051A0001B681A467B6A3B62FA61F9693A6A41E810
:1051B0000023BB61BB69002BE6D1FB881A46B968A6
:1051C000F86800F025FF034600E002231846283760
:1051D000BD4680BD80B5BAB000AF78607B681B6803
:1051E000DB69C7F8E4307B681B681B68C7F8E030F0
:1051F0007B681B689B68C7F8DC30D7F8E42040F672
:105200000F031340C7F8D830D7F8D830002B15D18A
:10521000D7F8E43003F02003002B0FD0D7F8E030AC
:1052200003F02003002B09D07B685B6E002B00F09D
:10523000A4827B685B6E786898479EE2D7F8D83086
:10524000002B00F01781D7F8DC3003F00103002BAE
:1052500006D1D7F8E020854B1340002B00F00A81DF
:10526000D7F8E43003F00103002B11D0D7F8E03079
:1052700003F48073002B0BD07B681B6801221A6239
:105280007B68D3F8803043F001027B68C3F880204C
:10529000D7F8E43003F00203002B11D0D7F8DC304C
:1052A00003F00103002B0BD07B681B6802221A62FB
:1052B0007B68D3F8803043F004027B68C3F8802019
:1052C000D7F8E43003F00403002B11D0D7F8DC301A
:1052D00003F00103002B0BD07B681B6804221A62C9
:1052E0007B68D3F8803043F002027B68C3F88020EB
:1052F000D7F8E43003F00803002B17D0D7F8E030DC
:1053000003F02003002B05D1D7F8DC3003F00103B4
:10531000002B0BD07B681B6808221A627B68D3F8CD
:10532000803043F008027B68C3F88020D7F8E4306F
:1053300003F40063002B12D0D7F8E03003F0806351
:10534000002B0CD07B681B684FF400621A627B68EC
:10535000D3F8803043F020027B68C3F880207B685C
:10536000D3F88030002B00F00A82D7F8E43003F045
:105370002003002B0DD0D7F8E03003F02003002BE2
:1053800007D07B685B6E002B03D07B685B6E786810
:1053900098477B68D3F88030C7F8D4307B681B68A7
:1053A0009B6803F04003402B05D0D7F8D43003F0BE
:1053B0002803002B4FD0786800F0F4FE7B681B6850
:1053C0009B6803F04003402B41D17B681B68083386
:1053D000C7F89C30D7F89C3053E8003FC7F89830A6
:1053E000D7F8983023F04003C7F8D0307B681B68AB
:1053F0000833D7F8D020C7F8A820C7F8A430D7F8CA
:10540000A410D7F8A82041E80023C7F8A030D7F8A7
:10541000A030002BD9D17B681B6F002B13D07B6889
:105420001B6F134A1A657B681B6F1846FDF7DEF980
:105430000346002B17D07B681B6F1B6D7A68126FB9
:10544000104698470FE0786800F0AEF90BE07868F6
:1054500000F0AAF907E0786800F0A6F97B6800225E
:10546000C3F880208BE100BF89E100BF2001000468
:105470006B6200087B681B6E012B40F04481D7F8FB
:10548000E43003F01003002B00F03D81D7F8E0304A
:1054900003F01003002B00F036817B681B6810229C
:1054A0001A627B681B689B6803F04003402B40F046
:1054B000B2807B681B6F1B685B68A7F8BE30B7F8CB
:1054C000BE30002B00F05D817B68B3F85830B7F830
:1054D000BE209A4280F055817B68B7F8BE20A3F8C1
:1054E0005A207B681B6FDB69B3F5807F00F08580F5
:1054F0007B681B68C7F88830D7F8883053E8003FCE
:10550000C7F88430D7F8843023F48073C7F8B830F4
:105510007B681B681A46D7F8B830C7F89430C7F8CC
:105520009020D7F89010D7F8942041E80023C7F8CE
:105530008C30D7F88C30002BDAD17B681B680833AD
:105540007B677B6F53E8003F3B673B6F23F00103B2
:10555000C7F8B4307B681B680833D7F8B420C7F8A5
:105560008020FB67F96FD7F8802041E80023BB67F4
:10557000BB6F002BE1D17B681B6808333B663B6E39
:1055800053E8003FFB65FB6D23F04003C7F8B030E4
:105590007B681B680833D7F8B020FA66BB66B96E23
:1055A000FA6E41E800237B667B6E002BE3D17B68BB
:1055B0002022DA677B6800221A667B681B68FB641E
:1055C000FB6C53E8003FBB64BB6C23F01003C7F8CF
:1055D000AC307B681B681A46D7F8AC30BB657A657F
:1055E000796DBA6D41E800233B653B6D002BE4D13A
:1055F0007B681B6F1846FDF789F87B68B3F8582065
:105600007B68B3F85A309BB2D31A9BB219467868BC
:1056100000F0D4F8B5E07B68B3F858207B68B3F8A5
:105620005A309BB2D31AA7F8CE307B68B3F85A3001
:105630009BB2002B00F0A780B7F8CE30002B00F013
:10564000A2807B681B68BB63BB6B53E8003F7B6336
:105650007B6B23F49073C7F8C8307B681B681A46CD
:10566000D7F8C8307B643A64396C7A6C41E800231F
:10567000FB63FB6B002BE4D17B681B6808337B6208
:105680007B6A53E8003F3B623B6A23F00103C7F8A3
:10569000C4307B681B680833D7F8C4203A63FB62C8
:1056A000F96A3A6B41E80023BB62BB6A002BE3D185
:1056B0007B682022DA677B6800221A667B680022FA
:1056C0005A667B681B683B613B6953E8003FFB609F
:1056D000FB6823F01003C7F8C0307B681B681A46CC
:1056E000D7F8C030FB61BA61B969FA6941E80023B3
:1056F0007B617B69002BE4D1B7F8CE30194678681E
:1057000000F05CF83FE0D7F8E43003F48013002B9E
:105710000ED0D7F8DC3003F48003002B08D07B6870
:105720001B684FF480121A62786800F053F82DE07D
:10573000D7F8E43003F08003002B0ED0D7F8E03028
:1057400003F08003002B08D07B689B6E002B1CD0DD
:105750007B689B6E7868984717E0D7F8E43003F0D1
:105760004003002B12D0D7F8E03003F04003002BA9
:105770000CD0786800F04AFE08E000BF06E000BFE9
:1057800004E000BF02E000BF00E000BFE837BD4614
:1057900080BD00BF80B483B000AF786000BF0C371D
:1057A000BD465DF8047B704780B483B000AF78607D
:1057B00000BF0C37BD465DF8047B704780B483B0F2
:1057C00000AF78600B467B8000BF0C37BD465DF8AC
:1057D000047B704780B483B000AF786000BF0C37A3
:1057E000BD465DF8047B704780B588B000AF786037
:1057F0000023BB777B689A687B681B691A437B68C8
:105800005B691A437B68DB6913437B617B681B68B8
:105810001A68A64B13407A68126879690B431360C3
:105820007B681B685B6823F440517B68DA687B689F
:105830001B680A435A607B689B697B617B681B6AB3
:105840007A6913437B617B681B689B6823F4306132
:105850007B681B687A690A439A607B681B68944A74
:10586000934220D1934BD3F8903003F00303032BE2
:1058700016D801A252F823F089580008955800085C
:105880008F5800089B5800080123FB7750E1022342
:10589000FB774DE10423FB774AE10823FB7747E1DF
:1058A0001023FB7744E17B681B68834A934232D123
:1058B000804BD3F8903003F00C030C2B28D801A2B6
:1058C00052F823F0F958000811590008115900083E
:1058D000115900080559000811590008115900080C
:1058E00011590008FF580008115900081159000803
:1058F000115900080B5900080023FB7718E1022317
:10590000FB7715E10423FB7712E10823FB770FE116
:105910001023FB770CE17B681B68684A934220D117
:10592000644BD3F8903003F03003302B13D0302B7E
:1059300014D8202B09D0202B10D8002B02D0102BEC
:1059400006D00BE00023FB77F2E00223FB77EFE0C9
:105950000423FB77ECE00823FB77E9E01023FB77D7
:10596000E6E07B681B68564A934220D1514BD3F83E
:10597000903003F0C003C02B13D0C02B14D8802B61
:1059800009D0802B10D8002B02D0402B06D00BE082
:105990000023FB77CCE00223FB77C9E00423FB77ED
:1059A000C6E00823FB77C3E01023FB77C0E07B68E9
:1059B0001B68444A934225D13E4BD3F8903003F400
:1059C0004073B3F5407F17D0B3F5407F17D8B3F5D8
:1059D000007F0BD0B3F5007F11D8002B03D0B3F5B7
:1059E000807F06D00BE00023FB77A1E00223FB774A
:1059F0009EE00423FB779BE00823FB7798E01023CD
:105A0000FB7795E07B681B682F4A934225D1294B91
:105A1000D3F8903003F44063B3F5406F17D0B3F57B
:105A2000406F17D8B3F5006F0BD0B3F5006F11D8E6
:105A3000002B03D0B3F5806F06D00BE00123FB777A
:105A400076E00223FB7773E00423FB7770E0082302
:105A5000FB776DE01023FB776AE07B681B681B4ACD
:105A6000934238D1134BD3F8903003F44053B3F53D
:105A7000405F17D0B3F5405F2AD8B3F5005F0BD075
:105A8000B3F5005F24D8002B03D0B3F5805F06D0B8
:105A90001EE00023FB774BE00223FB7748E0042362
:105AA000FB7745E00823FB7742E000BFF369FFEF97
:105AB000001001400038024000440040004800400F
:105AC000004C0040005000400014014000780040AD
:105AD0001023FB772CE07B681B68724A934225D128
